:080000000C94EC010C940000CB
:100008000C9400000C9400000C9400000C94000068
:100018000C9400000C9400000C9400000C94000058
:100028000C9400000C9400000C9400000C949102B5
:100038000C9400000C9400000C9400000C94000038
:100048000C9400000C9400000C9400001027E803A6
:1000580064000A0001000010000110000100FF0008
:10006800FF000000080002000D496E707574204DF5
:1000780061736B203D203058253033580D456E7420
:100088006572206E65772056616C75653A000D4F74
:100098007574707574204D61736B203D2030582540
:1000A8003033580D456E746572206E657720566141
:1000B8006C75653A000D436F6C756D6E73203D204D
:1000C80025640D456E746572206E65772056616CE7
:1000D80075653A000D44656C61792054696D6572E7
:1000E800204D6F6465203D2025642077697463681E
:1000F800206D65616E73202564206D6963726F20C1
:100108007365636F756E642E000D44656C617920AC
:1001180054696D6572204D6F6465203D202564200B
:100128007769746368206D65616E73202564206D3E
:10013800696C69207365636F756E642E000D526576
:100148007365740D000D496E707574204D61736B85
:10015800203D203058253033582C00094F757470D5
:100168007574204D61736B203D203058253033580D
:100178002C0009436F6C756D6E73203D2025642E2D
:10018800000D496E7075742050696E7320436F7549
:100198006E74203D2025642C00094F7574707574A9
:1001A8002050696E7320436F756E74203D2025645E
:1001B8002C00094C696E657320436F756E74203D81
:1001C8002025642E0D000D5072657373206920661A
:1001D8006F7220496E707574204D61736B2C00200E
:1001E8007120666F72206F7574707574204D61731D
:1001F8006B2C000D6320666F7220436F6C756D6EFB
:10020800732C00206420666F722044656C61792C21
:100218000020616E64206720666F72205363616EF0
:100228002E000D0D3E00082008000D56616C756506
:10023800206D757374206265206C65737320746813
:10024800616E2030784646462E000D4F75747075E5
:1002580074204D61736B203D203058253033580D84
:10026800000D496E707574204D61736B203D203010
:1002780058253033580D000D4572726F7220496E43
:10028800707574204F7574707574206D61736B731D
:100298002E204F7574707574204D61736B203D204E
:1002A8003058253033580D00436F6C756D6E7320D0
:1002B8003D2025640D0044656C61792054696D65A5
:1002C80072204D6F6465203D202564207769746332
:1002D80068206D65616E73202564206D6963726F97
:1002E800207365636F756E642E0D0044656C6179CB
:1002F8002054696D6572204D6F6465203D2025642A
:10030800207769746368206D65616E7320256420A9
:100318006D696C69207365636F756E642E0D004995
:100328003A256409513A256409433A25640D004980
:100338006E206D61736B3A25303358094F75742000
:100348006D61736B3A253033580D00253033583AB8
:1003580009002530325809000D0D546865205045B4
:10036800454C205363616E65722050726F677261ED
:100378006D20737461727465642E000D507265731C
:1003880073204720666F72205363616E207468651E
:10039800205045454C20636869702E0D5072657376
:1003A80073203F20666F72206D6F72652068656CE0
:1003B800702E0D0D3E0001002D4E414E00494E4657
:1003C80000000A00040066000100BB02BE03000032
:1003D800F894EE27ECBBF1E0FBBFEBBFE5BFF8E11B
:1003E800F1BDE1BD8DE0A2E0BB27ED938A95E9F769
:1003F80080E098E0A0E6ED930197E9F7EAECF3E0F6
:1004080085919591009761F0A591B591059015900A
:10041800BF01F00105900D920197E1F7FB01F0CFC4
:10042800EFE5EDBFE8E0EEBFC0E6D2E00C94D704FC
:100438001A930A93E0E0E0936002E093610200E01F
:1004480010E00431E0E01E07BCF40E947B07E421C1
:10045800F521309771F0A0E6B2E00E9481070E9472
:100468008807EA0FFB1FBF010E947B07DB01ED93A2
:10047800FC930F5F1F4FE5CF00916002109161025E
:100488000431E0E01E0744F4F8010E9488070E9446
:100498008D070F5F1F4FF4CFE0E0E0936202E09317
:1004A800630200E010E00830E0E01E07CCF40E9490
:1004B8007B07E621F721309781F0A2E6B2E00E949F
:1004C8008107ACE8B2E0EE0FFF1FEA0FFB1FBF0188
:1004D8000E947B07DB01ED93FC930F5F1F4FE3CF77
:1004E80000916202109163020431E0E01E0754F4A7
:1004F800F801ACE8B2E0EE0FFF1F0E948D070F5F16
:100508001F4FF2CF0E9494073197A1E0B0E00E94FC
:1005180086084F010991199108950A921A92FA9240
:100528006A937A938A939A93AA93BA93EA93FA93DB
:10053800EFB7EA931A93F8941CB10E9499070E94A6
:100548009E07E091B502F091B602309711F00C9435
:100558008A03E0E0E093B702E093B802E093B902BF
:10056800E093BA02E12FF0E0E934A0E0FA0721F0C5
:10057800E936A0E0FA0749F4E1E0F0E00E94A207BA
:10058800E0E7F0E00E94A707C0C0E135A0E0FA0765
:1005980021F0E137A0E0FA0709F404C0EF36A0E043
:1005A800FA0709F404C0EF34A0E0FA0749F4E2E0DE
:1005B800F0E00E94A207E6E9F0E00E94B307A5C0B8
:1005C800E334A0E0FA0721F0E336A0E0FA0749F4A3
:1005D800E3E0F0E00E94A207EDEBF0E00E94BF0725
:1005E80094C0E434A0E0FA0721F0E436A0E0FA076A
:1005F80099F4E4E0F0E00E94A2070E94CB071CF403
:10060800ECEDF0E002C0E1E1F1E0FA93EA930E9438
:10061800D007E4E8F0E073C0E235A0E0FA0721F083
:10062800E237A0E0FA0751F4EFEFF0E02F013F01C5
:10063800E8E0F0E05F01E5E4F1E061C0EF32A0E05E
:10064800FA0731F0EF33A0E0FA0711F00C947503C4
:10065800EDE4F1E00E94A707E3E6F1E00E94B307AA
:10066800EAE7F1E00E94BF070E94CB071CF4ECED1B
:10067800F0E002C0E1E1F1E0FA93EA930E94D007CA
:10068800D7DEE9E8F1E0FA93EA930E9494070E9422
:10069800E207E1EAF1E0FA93EA93E0916202F0916D
:1006A80063020E94E207EAEBF1E0FA93EA93F401AD
:1006B8000E94E207EEECF1E00E94EB07E7EEF1E0C2
:1006C8000E94EB07EBEFF1E00E94EB07EBE0F2E0B2
:1006D8000E94EB07E9E1F2E00E94EB07EAE2F2E0B0
:1006E8000EC0E734A0E0FA0721F0E736A0E0FA07E9
:1006F80021F4E1E0E093B40208C0EEE2F2E0FA93FC
:10070800EA9380E00E943F072296B3C0E130A0E060
:10071800FA07C9F5103310F01A3390F10E94F20766
:10072800A030E0E1BE072CF0E2E3F2E00E94EB0724
:10073800A0C00E94F207A030E4E0BE0734F00E9497
:10074800F707E621F721309709F40AC00E94F70756
:10075800E095F0953F01E2E5F2E00E94B30703C09F
:100768000E94FC0724F44090B7025090B802E9E6D2
:10077800F2E00E94A7070E9400080E94030802C036
:100788000E94090876C0E230A0E0FA0781F510332C
:1007980010F01A3348F10E94FC07ECF4EFEFF3E095
:1007A800E415F50554F4D201EAE00E948F080E948E
:1007B800F207EA23FB23309709F409C00E94F707E0
:1007C800E095F0953F01EFE7F2E00E94B3076090F3
:1007D800B7027090B802E2E5F2E00E94B3070E9407
:1007E80000080E94030802C00E94090842C0E330C2
:1007F800A0E0FA07B9F4103310F01A3380F00E9421
:10080800FC0724F4A090B702B090B802E0EBF2E045
:100818000E94BF070E9400080E94030802C00E94AD
:10082800090827C0E430A0E0FA0719F5103310F0E2
:100838001A33E8F00E94FC0724F40E94F2071A9782
:100848000CF004C0C090B702D090B8020E94CB0749
:100858001CF4EEEBF2E002C0E3EFF2E0FA93EA9365
:100868000E94D0070E9400080E94030802C00E944C
:10087800090878940E9499070E941B081991E99128
:10088800EFBFF991E991B991A991999189917991DC
:100898006991F9901990099018952E970E94CE08A1
:1008A800E0E0E093B402F8940E941F080E949E07BB
:1008B800BFDDA88AB98A8E869F864C865D866A8641
:1008C8007B860E949407E887F987E0916202F0919D
:1008D8006302EE83FF83EDE0EA930E94F805E7E206
:1008E800F3E0FA93EA93EA85FB850E942408EC85F5
:1008F800FD850E942408EA8DFB8D0E9424088CE067
:100908000E943F072E96E7E3F3E0FA93EA93EE8519
:10091800FF850E942408E889F9890E94240888E054
:100928000E943F072A9620E030E0EE85FF852E17CB
:100938003F0774F5F901EE0FFF1F8F01E3E5F3E0C0
:10094800FA93EA93F8010E94E2071A930A93EE8554
:10095800FF85FA93EA9375D00E942908E0E0EA8BB4
:10096800EB8BE889F989AA89BB89AE17BF074CF4D4
:1009780036D10E942908EA89FB893196EA8BFB8BDC
:10098800F0CFEDE0EA930E94F8052F5F3F4FCDCFFF
:10099800EAE2F2E00E94EB070E941F080E941B088F
:1009A80078940C943B0728D00E941F080E941B08CB
:1009B8000E9499070E941B08E2E0F0E0FA93EA938C
:1009C8000E949E07E0E6F3E00E94EB07E3E8F3E00D
:1009D8000E94EB07E091B402E03009F05EDFFACF45
:1009E800FFCFE2E0EBB9E8E9EAB9E6E0E0BDE0E034
:1009F800E0BDE0E1E9B90895E1E0E5BFEFEFEABB6A
:100A0800E7BBE0E0E4BBECEFE1BBE0E0EBBBE8BB5D
:100A1800EFEFE5BBE0E0E2BBE0BFE3DF78940895E9
:100A2800E881E03029F00E943A08E095E12103C00E
:100A38000E943A08E129E2BB0C940806E3B3F0E00F
:100A480008950E94D00820E030E000E010E0043172
:100A5800E0E01E07A4F40E947B07AE81BF81EA2371
:100A6800FB23309749F0F8010E948807AE0FBF1F9B
:100A78000E94BD082E2B3F2B0F5F1F4FE8CFE22FA0
:100A8800EBBBF9010E949808E370E8BBAC81BD811B
:100A9800A030E4E0BE074CF0EAE00E948F08E4BB17
:100AA800D901EAE00E948F08E5BB0E94D708289682
:100AB8000895E881F981E130A0E0FA0719F4E1E04E
:100AC800F0E08BC0E230A0E0FA0719F4E5E0F0E0CE
:100AD80084C0E330A0E0FA0719F4E9E1F0E07DC052
:100AE800E430A0E0FA0719F4EDE7F0E076C0E5306D
:100AF800A0E0FA0719F4E1E7F2E06FC0E630A0E001
:100B0800FA0719F4E5E0F0E068C0E730A0E0FA077A
:100B180019F4E9E1F0E061C0E830A0E0FA0719F45F
:100B2800EDE7F0E05AC0E930A0E0FA0719F4E1E790
:100B3800F2E053C052C0E881F981309711F4000007
:100B48004CC0E130A0E0FA0721F483E08A95F1F780
:100B580044C0E230A0E0FA0721F48DE08A95F1F76D
:100B68003CC0E330A0E0FA0721F483E48A95F1F76A
:100B780034C0E430A0E0FA0729F48AEF90E0019746
:100B8800F1F72BC0E530A0E0FA0729F482EE94E0F3
:100B98000197F1F722C0E630A0E0FA0719F4E5E082
:100BA800F0E017C0E730A0E0FA0719F4E9E1F0E057
:100BB80010C0E830A0E0FA0719F4EDE7F0E009C04A
:100BC800E930A0E0FA0719F4E1E7F2E002C0E8EE44
:100BD800F3E0FA93EA930E946A0822960895EBB329
:100BE800A1E0EA27EBBB08955D9BFECFE881ECB955
:100BF80021960895EA81EA93F7DFA881B981ED91FA
:100C0800FD913196FE93EE932396089526970E94C0
:100C1800CE0810E0AC85BD85E0E0F0E0ED93FC93F4
:100C2800EA89FB893196EA8BFB8B3197E4912E2F69
:100C3800E03011F40C943707E12FE03039F4253215
:100C480011F411E002C00E9441080CC1E130A9F47E
:100C5800253219F40E94410804C112E040E000E086
:100C68002D3211F401E0FEC02B3211F44BE2FAC030
:100C7800203211F440E2F6C002C0E23039F450E00C
:100C880013E0203311F40068EDC004C0E33011F024
:100C98000C943607203310F02A3308F007C0AAE076
:100CA8005A9F502DE22FE0535E0FDCC0E22FE3364F
:100CB80049F40E944A08E889F989A481AA930E9404
:100CC8005008CFC0E33741F40E944A080E945808F0
:100CD8000E9466071E2F0AC0E03761F40E944A0886
:100CE8000E9458080E9470071E2F086002600F7744
:100CF80030E035C0E43611F0E93611F4046002C082
:100D0800E53731F4E4E5F0E0EE83FF8315E00DC04C
:100D1800E83511F4086004C0E83711F00C94350781
:100D2800EEE5F0E0EE83FF8314E002FF14C00E94BA
:100D38004A080E946208AB85AA233AF4EA85FB8533
:100D48000E947A08EA87FB874DE2403011F01F5F66
:100D580001C00B7F04C00E944A080E94620800FD7F
:100D680011C0151778F407FF08C002FF04C00B7FF5
:100D7800242F115001C020E301C020E20E94410845
:100D88005150EFCF312F01FF17C03030A1F003FFD2
:100D980006C0EE81FF812591EE83FF8305C0AE81F9
:100DA800BF812D91AE83BF830E944108503009F066
:100DB80051503150EACF4BC020E3EE81FF810E94B1
:100DC800C108E887F987EE81FF813296EE83FF83B9
:100DD800E885F985AA85BB85AE17BF0750F02F5F58
:100DE800A885B985EA85FB85EA1BFB0BEA87FB87A3
:100DF800EFCF2A3328F003FF02C0295F01C0295D25
:100E080004FD1AC0213320F4A885B985119709F487
:100E180009C0531710F000FF01C013C020E207FFFC
:100E28000BC020E3006102FF07C00B7F4A930E94BA
:100E38005008503009F051500E944108503009F0D4
:100E480051503150A885B985129708F0B5CF00FFE9
:100E580008C0503031F05150E0E2EA930E94500847
:100E6800F8CF10E0DDCEAC85BD850E94BD080E949C
:100E7800D50864960895FF92F82E26971A930A9338
:100E8800DE0114960E9476088D01E0E0EC83ED8384
:100E9800EE83EF83DE0118960E9476080E94BD0853
:100EA800FA93EA931A930A93EEEFF5E0FA93EA932A
:100EB800FE013896FA93EA93A9DE198108812896EB
:100EC800FF900895A991B991EE27FF276D916623A8
:100ED80011F03196FBCF0895AA27BB27E991F99124
:100EE8000590002011F01196FBCFFD010895E02F29
:100EF800A1E0B0E00E9486080895ED91FD91319639
:100F0800FE93EE9331970895A4E6B2E0EE0FFF1F2B
:100F18000895AE0FBF1FE0E0F0E0ED93FC93089555
:100F2800E0916002F09161020895E1E0F0E0FA9347
:100F3800EA930895E1E0EA930C941405E093B5026E
:100F4800F093B6020895FA93EA93F2010E949D087D
:100F58000E94C50884E00E943F0726960895FA93E8
:100F6800EA93F3010E949D080E94C50884E00E944C
:100F78003F0726960895FA93EA93F5010E949D0883
:100F88000E94C50884E00E943F0726960895E6E07F
:100F9800F0E0CE16DF060895F6010E949D080E9433
:100FA800C508DA92CA920E945D050E949D080E94B7
:100FB800C50888E00E943F072A9608950E949D0868
:100FC8000E94C50884E00E943F0726960895FA9378
:100FD800EA9380E00E943F0722960895A091B70205
:100FE800B091B8020895FADFEAE00E948F080895E8
:100FF800F5DF0E94CA080895EBE2F2E0E8CFE0E0EE
:10100800E093B502E093B6020895E091B702F0913B
:10101800B802AAE0B0E00E94AA08DF01EE27A10FFB
:10102800BE1FD097A093B702B093B8020895E0E02E
:10103800EA930C941405E0E0F0E0FA93EA9308953B
:101048000E949D080E94C5080895DA92CA920E94DB
:101058009F050E942205AA85BB85EA23FB23AF01D1
:10106800EAE5F3E0FA93EA93FA01A8CF12B2E9812C
:10107800EB5FA1E00E947E0808952A93ED85FE8526
:10108800FA93EA93E989FA8909950895E889F9892B
:101098003497E88BF98B0895ED85FE85FA93EA93EA
:1010A800E989FA8909950895A889B98914960E9449
:1010B800BD08EE83FF83FA93EA930895A889B98956
:1010C80014960E94BD08EA87FB870895E991F99173
:1010D800309639F080ED97E00197F1F7A8953197B0
:1010E800C9F708950024AF0DB01D0895F195E19555
:1010F800F0400895EE230E2EEA2F19F0EE0F0A9411
:10110800E9F70895EE230E2EFD0121F0EE0FFF1FE3
:101118000A94E1F70895EE230E2EFD0121F0F595CE
:10112800E7950A94E1F70895EF2FFF27E7FDFFEF12
:1011380008956F2F660F660B762F0895FA9FF02D8E
:10114800EB9FF00DEA9FE02DF10D089504D0F6DF36
:101158000EF4CCDF0895E894F7FF02C0C7DF689467
:10116800B7FF06C0A095B095119600F8039400FA51
:101178000895ED91FC91119708950590F491E02D53
:1011880008957A936A93FA93EA93089500240A16C5
:101198000B0608955A934A933A932A931A930A93FB
:1011A80008955D814C813B812A81198108810895C8
:00000001FF
